{
  "contractName": "DecentractClass",
  "abi": [
    {
      "constant": true,
      "inputs": [
        {
          "name": "",
          "type": "uint256"
        }
      ],
      "name": "decentracts",
      "outputs": [
        {
          "name": "id",
          "type": "uint256"
        },
        {
          "name": "balance",
          "type": "uint256"
        },
        {
          "name": "buyer",
          "type": "address"
        },
        {
          "name": "seller",
          "type": "address"
        },
        {
          "name": "supervisorA",
          "type": "address"
        },
        {
          "name": "supervisorB",
          "type": "address"
        },
        {
          "name": "supervisorC",
          "type": "address"
        },
        {
          "name": "disputedByBuyer",
          "type": "bool"
        },
        {
          "name": "disputedBySeller",
          "type": "bool"
        },
        {
          "name": "completedByBuyer",
          "type": "bool"
        },
        {
          "name": "completedBySeller",
          "type": "bool"
        },
        {
          "name": "qualitySpecs",
          "type": "string"
        },
        {
          "name": "deadline",
          "type": "string"
        }
      ],
      "payable": false,
      "stateMutability": "view",
      "type": "function"
    },
    {
      "constant": true,
      "inputs": [],
      "name": "decentractCount",
      "outputs": [
        {
          "name": "",
          "type": "uint256"
        }
      ],
      "payable": false,
      "stateMutability": "view",
      "type": "function"
    },
    {
      "inputs": [],
      "payable": false,
      "stateMutability": "nonpayable",
      "type": "constructor"
    },
    {
      "constant": false,
      "inputs": [
        {
          "name": "_buy",
          "type": "address"
        },
        {
          "name": "_sell",
          "type": "address"
        },
        {
          "name": "_supA",
          "type": "address"
        },
        {
          "name": "_supB",
          "type": "address"
        },
        {
          "name": "_supC",
          "type": "address"
        },
        {
          "name": "qualitySpecs",
          "type": "string"
        },
        {
          "name": "deadline",
          "type": "string"
        }
      ],
      "name": "newDecentract",
      "outputs": [
        {
          "name": "",
          "type": "uint256"
        }
      ],
      "payable": false,
      "stateMutability": "nonpayable",
      "type": "function"
    },
    {
      "constant": false,
      "inputs": [
        {
          "name": "decentractId",
          "type": "uint256"
        }
      ],
      "name": "complete",
      "outputs": [],
      "payable": false,
      "stateMutability": "nonpayable",
      "type": "function"
    },
    {
      "constant": false,
      "inputs": [
        {
          "name": "decentractId",
          "type": "uint256"
        }
      ],
      "name": "dispute",
      "outputs": [],
      "payable": false,
      "stateMutability": "nonpayable",
      "type": "function"
    },
    {
      "constant": false,
      "inputs": [
        {
          "name": "decentractId",
          "type": "uint256"
        }
      ],
      "name": "transferToContract",
      "outputs": [],
      "payable": true,
      "stateMutability": "payable",
      "type": "function"
    },
    {
      "constant": false,
      "inputs": [
        {
          "name": "decentractId",
          "type": "uint256"
        }
      ],
      "name": "withdrawFromContract",
      "outputs": [],
      "payable": false,
      "stateMutability": "nonpayable",
      "type": "function"
    },
    {
      "constant": false,
      "inputs": [
        {
          "name": "decentractId",
          "type": "uint256"
        },
        {
          "name": "amount",
          "type": "uint256"
        },
        {
          "name": "receiver",
          "type": "address"
        }
      ],
      "name": "supervisorWithdraw",
      "outputs": [],
      "payable": false,
      "stateMutability": "nonpayable",
      "type": "function"
    }
  ],
  "bytecode": "0x608060405234801561001057600080fd5b50611877806100206000396000f30060806040526004361061008e576000357c0100000000000000000000000000000000000000000000000000000000900463ffffffff16806312e6ea01146100935780632bd43bdd146102de57806374b9d3b01461030957806386d6282c14610360578063971d852f1461038d578063aeae547d146103ba578063bace5762146103e7578063d555d4731461054a575b600080fd5b34801561009f57600080fd5b506100be6004803603810190808035906020019092919050505061056a565b604051808e81526020018d81526020018c73ffffffffffffffffffffffffffffffffffffffff1673ffffffffffffffffffffffffffffffffffffffff1681526020018b73ffffffffffffffffffffffffffffffffffffffff1673ffffffffffffffffffffffffffffffffffffffff1681526020018a73ffffffffffffffffffffffffffffffffffffffff1673ffffffffffffffffffffffffffffffffffffffff1681526020018973ffffffffffffffffffffffffffffffffffffffff1673ffffffffffffffffffffffffffffffffffffffff1681526020018873ffffffffffffffffffffffffffffffffffffffff1673ffffffffffffffffffffffffffffffffffffffff168152602001871515151581526020018615151515815260200185151515158152602001841515151581526020018060200180602001838103835285818151815260200191508051906020019080838360005b83811015610230578082015181840152602081019050610215565b50505050905090810190601f16801561025d5780820380516001836020036101000a031916815260200191505b50838103825284818151815260200191508051906020019080838360005b8381101561029657808201518184015260208101905061027b565b50505050905090810190601f1680156102c35780820380516001836020036101000a031916815260200191505b509f5050505050505050505050505050505060405180910390f35b3480156102ea57600080fd5b506102f36107d4565b6040518082815260200191505060405180910390f35b34801561031557600080fd5b5061035e6004803603810190808035906020019092919080359060200190929190803573ffffffffffffffffffffffffffffffffffffffff1690602001909291905050506107da565b005b34801561036c57600080fd5b5061038b60048036038101908080359060200190929190505050610a34565b005b34801561039957600080fd5b506103b860048036038101908080359060200190929190505050610c14565b005b3480156103c657600080fd5b506103e560048036038101908080359060200190929190505050610df4565b005b3480156103f357600080fd5b50610534600480360381019080803573ffffffffffffffffffffffffffffffffffffffff169060200190929190803573ffffffffffffffffffffffffffffffffffffffff169060200190929190803573ffffffffffffffffffffffffffffffffffffffff169060200190929190803573ffffffffffffffffffffffffffffffffffffffff169060200190929190803573ffffffffffffffffffffffffffffffffffffffff169060200190929190803590602001908201803590602001908080601f0160208091040260200160405190810160405280939291908181526020018383808284378201915050505050509192919290803590602001908201803590602001908080601f01602080910402602001604051908101604052809392919081815260200183838082843782019150505050505091929192905050506110dc565b6040518082815260200191505060405180910390f35b61056860048036038101908080359060200190929190505050611422565b005b60016020528060005260406000206000915090508060000154908060010154908060020160009054906101000a900473ffffffffffffffffffffffffffffffffffffffff16908060030160009054906101000a900473ffffffffffffffffffffffffffffffffffffffff16908060040160009054906101000a900473ffffffffffffffffffffffffffffffffffffffff16908060050160009054906101000a900473ffffffffffffffffffffffffffffffffffffffff16908060060160009054906101000a900473ffffffffffffffffffffffffffffffffffffffff16908060060160149054906101000a900460ff16908060060160159054906101000a900460ff16908060060160169054906101000a900460ff16908060060160179054906101000a900460ff1690806007018054600181600116156101000203166002900480601f01602080910402602001604051908101604052809291908181526020018280546001816001161561010002031660029004801561072c5780601f106107015761010080835404028352916020019161072c565b820191906000526020600020905b81548152906001019060200180831161070f57829003601f168201915b505050505090806008018054600181600116156101000203166002900480601f0160208091040260200160405190810160405280929190818152602001828054600181600116156101000203166002900480156107ca5780601f1061079f576101008083540402835291602001916107ca565b820191906000526020600020905b8154815290600101906020018083116107ad57829003601f168201915b505050505090508d565b60005481565b60006107e86002853361155a565b1515610882576040517f08c379a00000000000000000000000000000000000000000000000000000000081526004018080602001828103825260298152602001807f596f7520617265206e6f7420616c6c6f77656420746f2072756e20746869732081526020017f66756e6374696f6e2e000000000000000000000000000000000000000000000081525060400191505060405180910390fd5b600115156001600086815260200190815260200160002060060160149054906101000a900460ff16151514806108df5750600115156001600086815260200190815260200160002060060160159054906101000a900460ff161515145b1515610953576040517f08c379a00000000000000000000000000000000000000000000000000000000081526004018080602001828103825260188152602001807f436f6e7472616374206973206e6f74206469737075746564000000000000000081525060200191505060405180910390fd5b600160008581526020019081526020016000206001015490506000838203101515156109e7576040517f08c379a00000000000000000000000000000000000000000000000000000000081526004018080602001828103825260128152602001807f42616c616e636520697320746f6f206c6f77000000000000000000000000000081525060200191505060405180910390fd5b8173ffffffffffffffffffffffffffffffffffffffff166108fc849081150290604051600060405180830381858888f19350505050158015610a2d573d6000803e3d6000fd5b5050505050565b610a406001823361155a565b1515610ada576040517f08c379a00000000000000000000000000000000000000000000000000000000081526004018080602001828103825260298152602001807f596f7520617265206e6f7420616c6c6f77656420746f2072756e20746869732081526020017f66756e6374696f6e2e000000000000000000000000000000000000000000000081525060400191505060405180910390fd5b6001600082815260200190815260200160002060020160009054906101000a900473ffffffffffffffffffffffffffffffffffffffff1673ffffffffffffffffffffffffffffffffffffffff163373ffffffffffffffffffffffffffffffffffffffff161415610b7757600180600083815260200190815260200160002060060160146101000a81548160ff021916908315150217905550610c11565b6001600082815260200190815260200160002060030160009054906101000a900473ffffffffffffffffffffffffffffffffffffffff1673ffffffffffffffffffffffffffffffffffffffff163373ffffffffffffffffffffffffffffffffffffffff161415610c1057600180600083815260200190815260200160002060060160156101000a81548160ff0219169083151502179055505b5b50565b610c206001823361155a565b1515610cba576040517f08c379a00000000000000000000000000000000000000000000000000000000081526004018080602001828103825260298152602001807f596f7520617265206e6f7420616c6c6f77656420746f2072756e20746869732081526020017f66756e6374696f6e2e000000000000000000000000000000000000000000000081525060400191505060405180910390fd5b6001600082815260200190815260200160002060020160009054906101000a900473ffffffffffffffffffffffffffffffffffffffff1673ffffffffffffffffffffffffffffffffffffffff163373ffffffffffffffffffffffffffffffffffffffff161415610d5757600180600083815260200190815260200160002060060160166101000a81548160ff021916908315150217905550610df1565b6001600082815260200190815260200160002060030160009054906101000a900473ffffffffffffffffffffffffffffffffffffffff1673ffffffffffffffffffffffffffffffffffffffff163373ffffffffffffffffffffffffffffffffffffffff161415610df057600180600083815260200190815260200160002060060160176101000a81548160ff0219169083151502179055505b5b50565b6000610e026001833361155a565b1515610e9c576040517f08c379a00000000000000000000000000000000000000000000000000000000081526004018080602001828103825260298152602001807f596f7520617265206e6f7420616c6c6f77656420746f2072756e20746869732081526020017f66756e6374696f6e2e000000000000000000000000000000000000000000000081525060400191505060405180910390fd5b600115156001600084815260200190815260200160002060060160149054906101000a900460ff16151514158015610efc5750600115156001600084815260200190815260200160002060060160159054906101000a900460ff16151514155b1515610f70576040517f08c379a00000000000000000000000000000000000000000000000000000000081526004018080602001828103825260148152602001807f436f6e747261637420697320646973707574656400000000000000000000000081525060200191505060405180910390fd5b600115156001600084815260200190815260200160002060060160169054906101000a900460ff161515148015610fce5750600115156001600084815260200190815260200160002060060160179054906101000a900460ff161515145b1515611042576040517f08c379a000000000000000000000000000000000000000000000000000000000815260040180806020018281038252601f8152602001807f426f74682070617274696573206e65656420746f20636f6d706c65746528290081525060200191505060405180910390fd5b600160008381526020019081526020016000206001015490506001600083815260200190815260200160002060030160009054906101000a900473ffffffffffffffffffffffffffffffffffffffff1673ffffffffffffffffffffffffffffffffffffffff166108fc829081150290604051600060405180830381858888f193505050501580156110d7573d6000803e3d6000fd5b505050565b600080600081548092919060010191905055506101a0604051908101604052806000548152602001600081526020018973ffffffffffffffffffffffffffffffffffffffff1681526020018873ffffffffffffffffffffffffffffffffffffffff1681526020018773ffffffffffffffffffffffffffffffffffffffff1681526020018673ffffffffffffffffffffffffffffffffffffffff1681526020018573ffffffffffffffffffffffffffffffffffffffff168152602001600015158152602001600015158152602001600015158152602001600015158152602001848152602001838152506001600080548152602001908152602001600020600082015181600001556020820151816001015560408201518160020160006101000a81548173ffffffffffffffffffffffffffffffffffffffff021916908373ffffffffffffffffffffffffffffffffffffffff16021790555060608201518160030160006101000a81548173ffffffffffffffffffffffffffffffffffffffff021916908373ffffffffffffffffffffffffffffffffffffffff16021790555060808201518160040160006101000a81548173ffffffffffffffffffffffffffffffffffffffff021916908373ffffffffffffffffffffffffffffffffffffffff16021790555060a08201518160050160006101000a81548173ffffffffffffffffffffffffffffffffffffffff021916908373ffffffffffffffffffffffffffffffffffffffff16021790555060c08201518160060160006101000a81548173ffffffffffffffffffffffffffffffffffffffff021916908373ffffffffffffffffffffffffffffffffffffffff16021790555060e08201518160060160146101000a81548160ff0219169083151502179055506101008201518160060160156101000a81548160ff0219169083151502179055506101208201518160060160166101000a81548160ff0219169083151502179055506101408201518160060160176101000a81548160ff0219169083151502179055506101608201518160070190805190602001906113f09291906117a6565b5061018082015181600801908051906020019061140e9291906117a6565b509050506000549050979650505050505050565b61142e6001823361155a565b15156114c8576040517f08c379a00000000000000000000000000000000000000000000000000000000081526004018080602001828103825260298152602001807f596f7520617265206e6f7420616c6c6f77656420746f2072756e20746869732081526020017f66756e6374696f6e2e000000000000000000000000000000000000000000000081525060400191505060405180910390fd5b6001600082815260200190815260200160002060020160009054906101000a900473ffffffffffffffffffffffffffffffffffffffff1673ffffffffffffffffffffffffffffffffffffffff163373ffffffffffffffffffffffffffffffffffffffff161415611557573460016000838152602001908152602001600020600101600082825401925050819055505b50565b60006001841415611645576001600084815260200190815260200160002060020160009054906101000a900473ffffffffffffffffffffffffffffffffffffffff1673ffffffffffffffffffffffffffffffffffffffff168273ffffffffffffffffffffffffffffffffffffffff16148061163657506001600084815260200190815260200160002060030160009054906101000a900473ffffffffffffffffffffffffffffffffffffffff1673ffffffffffffffffffffffffffffffffffffffff168273ffffffffffffffffffffffffffffffffffffffff16145b15611644576001905061179f565b5b600284141561179a576001600084815260200190815260200160002060040160009054906101000a900473ffffffffffffffffffffffffffffffffffffffff1673ffffffffffffffffffffffffffffffffffffffff168273ffffffffffffffffffffffffffffffffffffffff16148061171f57506001600084815260200190815260200160002060050160009054906101000a900473ffffffffffffffffffffffffffffffffffffffff1673ffffffffffffffffffffffffffffffffffffffff168273ffffffffffffffffffffffffffffffffffffffff16145b8061178b57506001600084815260200190815260200160002060060160009054906101000a900473ffffffffffffffffffffffffffffffffffffffff1673ffffffffffffffffffffffffffffffffffffffff168273ffffffffffffffffffffffffffffffffffffffff16145b15611799576001905061179f565b5b600090505b9392505050565b828054600181600116156101000203166002900490600052602060002090601f016020900481019282601f106117e757805160ff1916838001178555611815565b82800160010185558215611815579182015b828111156118145782518255916020019190600101906117f9565b5b5090506118229190611826565b5090565b61184891905b8082111561184457600081600090555060010161182c565b5090565b905600a165627a7a72305820beb060e9a6ed40606f1fb5bcbc7160777a6e7338977395c3ba99b208aabc28da0029",
  "source": "pragma solidity ^0.4.17;\n\ncontract DecentractClass {\n\n    struct Decentract {\n        uint id;\n        uint balance;\n        address buyer;\n        address seller;\n        address supervisorA;\n        address supervisorB;\n        address supervisorC;\n\n        bool disputedByBuyer;\n        bool disputedBySeller;\n        bool completedByBuyer;\n        bool completedBySeller;\n\n        string qualitySpecs;\n        string deadline;\n    }\n\n    uint public decentractCount;\n    mapping(uint => Decentract) public decentracts;\n\n    constructor() public {\n    }\n\n    function newDecentract(address _buy, address _sell, address _supA, address _supB, address _supC, string qualitySpecs, string deadline) public returns (uint) {\n        decentractCount++;\n        decentracts[decentractCount] = Decentract(decentractCount, 0, _buy, _sell, _supA, _supB, _supC, false, false, false, false, qualitySpecs, deadline);\n        return decentractCount;\n    }\n\n    function complete(uint decentractId) public {\n        require(allowedToRun(1, decentractId, msg.sender), 'You are not allowed to run this function.');\n\n        if (msg.sender == decentracts[decentractId].buyer) {\n            decentracts[decentractId].completedByBuyer = true;\n        } else if (msg.sender == decentracts[decentractId].seller) {\n            decentracts[decentractId].completedBySeller = true;\n        }\n    }\n\n    function dispute(uint decentractId) public {\n        require(allowedToRun(1, decentractId, msg.sender), 'You are not allowed to run this function.');\n\n        if (msg.sender == decentracts[decentractId].buyer) {\n            decentracts[decentractId].disputedByBuyer = true;\n        } else if (msg.sender == decentracts[decentractId].seller) {\n            decentracts[decentractId].disputedBySeller = true;\n        }\n    }\n\n    function transferToContract(uint decentractId) public payable {\n        require(allowedToRun(1, decentractId, msg.sender), 'You are not allowed to run this function.');\n\n        if (msg.sender == decentracts[decentractId].buyer) {\n            decentracts[decentractId].balance += msg.value;\n        }\n    }\n\n    //withdraw ETH from the contract\n    //only possible when both parties completed the contract and there are no disputes\n    function withdrawFromContract(uint decentractId) public {\n        require(allowedToRun(1, decentractId, msg.sender),\n            'You are not allowed to run this function.');\n\n        require(decentracts[decentractId].disputedByBuyer != true && decentracts[decentractId].disputedBySeller != true,\n            \"Contract is disputed\");\n        require(decentracts[decentractId].completedByBuyer == true && decentracts[decentractId].completedBySeller == true,\n            \"Both parties need to complete()\");\n\n        uint amount = decentracts[decentractId].balance;\n        decentracts[decentractId].seller.transfer(amount);\n    }\n\n    //send a certain amount to an address\n    //only available by a supervisor when the contract is disputed\n    //TODO: let a supervisor propose a solution (== transaction(s)) and let\n    //other supervisors vote. When 2 votes\n    function supervisorWithdraw(uint decentractId, uint amount, address receiver) public {\n        require(allowedToRun(2, decentractId, msg.sender), 'You are not allowed to run this function.');\n\n        require(decentracts[decentractId].disputedByBuyer == true || decentracts[decentractId].disputedBySeller == true,\n            \"Contract is not disputed\");\n\n        uint balance = decentracts[decentractId].balance;\n        require(balance-amount >= 0, 'Balance is too low');\n\n        receiver.transfer(amount);\n    }\n\n    //tier1 == buyer/seller\n    //tier2 == supervisors\n    function allowedToRun(uint _case, uint _decentractId, address _sender) private view returns (bool) {\n        if (_case==1) {\n            if (_sender == decentracts[_decentractId].buyer || _sender == decentracts[_decentractId].seller) {\n                return true;\n            }\n        }\n        if (_case==2) {\n            if (_sender == decentracts[_decentractId].supervisorA || _sender == decentracts[_decentractId].supervisorB || _sender == decentracts[_decentractId].supervisorC) {\n                return true;\n            }\n        }\n\n        return false;\n    }\n}",
  "sourcePath": "/Users/marijnbent/Developer/dcontract/contracts/DecentractClass.sol",
  "compiler": {
    "name": "solc",
    "version": "0.4.24+commit.e67f0147.Emscripten.clang"
  },
  "schemaVersion": "2.0.0",
  "updatedAt": "2018-06-18T11:38:12.323Z"
}